:100000000C942A000C9443120C947A120C94B112A2
:100010000C9447000C9447000C94F9150C948B1524
:100020000C94C2150C9454150C9447000C94561360
:100030000C941F130C9430160C9447000C94671604
:100040000C9447000C94E8120C9447000C94470061
:100050000C94470011241FBECFE5D8E0DEBFCDBF12
:1000600010E0A0E6B0E0ECE2F0E302C005900D92F3
:10007000A23EB107D9F720E0A2EEB0E001C01D9288
:10008000AD3FB207E1F70E94EA090C9414180C94F2
:100090000000CF93DF93CDB7DEB7E9970FB6F894A2
:1000A000DEBF0FBECDBF89AF60E081E00E946B0F65
:1000B00089AD881F8827881F682F86E00E946B0FF4
:1000C00089AD82958695869583708170682F85E0CD
:1000D0000E946B0F89AD8295869587708170682F1D
:1000E00084E00E946B0F89AD82958F708170682FBC
:1000F00083E00E946B0F61E082E00E946B0F80E062
:1001000090E0A0E8BFE389839A83AB83BC8320E0BF
:1001100030E04AEF54E469817A818B819C810E94AE
:100120004C17DC01CB018FA798ABA9ABBAAB20E091
:1001300030E040E85FE36FA578A989A99AA90E94F9
:100140009E1688232CF481E090E09CAB8BAB3FC0E3
:1001500020E03FEF4FE757E46FA578A989A99AA956
:100160000E94471718164CF520E030E040E251E4B9
:1001700069817A818B819C810E944C17DC01CB01C3
:10018000BC01CD010E94A316DC01CB019CAB8BAB63
:100190000FC088EC90E09EAB8DAB8DA99EA9019716
:1001A000F1F79EAB8DAB8BA99CA901979CAB8BAB58
:1001B0008BA99CA9892B69F714C06FA578A989A977
:1001C0009AA90E94A316DC01CB019CAB8BAB8BA937
:1001D0009CA998AF8FAB8FA998AD0197F1F798AF15
:1001E0008FAB60E082E00E946B0F80E090E0A0E8BF
:1001F000BFE38D839E83AF83B88720E030E04AEF72
:1002000054E46D817E818F8198850E944C17DC01BA
:10021000CB018DA39EA3AFA3B8A720E030E040E8B8
:100220005FE36DA17EA18FA198A50E949E168823F1
:100230002CF481E090E09AA789A73FC020E03FEF2F
:100240004FE757E46DA17EA18FA198A50E944717A3
:1002500018164CF520E030E040E251E46D817E81DB
:100260008F8198850E944C17DC01CB01BC01CD0128
:100270000E94A316DC01CB019AA789A70FC088ECC6
:1002800090E09CA78BA78BA59CA50197F1F79CA755
:100290008BA789A59AA501979AA789A789A59AA549
:1002A000892B69F714C06DA17EA18FA198A50E942A
:1002B000A316DC01CB019AA789A789A59AA59EA7B9
:1002C0008DA78DA59EA50197F1F79EA78DA789AD56
:1002D0008695869586958170682F86E00E946B0FC3
:1002E00089AD869586958170682F85E00E946B0F99
:1002F00089AD86958170682F84E00E946B0F89AD6F
:100300008170682F83E00E946B0F61E082E00E94A1
:100310006B0F80E090E0A0E8BFE389879A87AB8706
:10032000BC8720E030E04AEF54E469857A858B850C
:100330009C850E944C17DC01CB018B8F9C8FAD8F6D
:10034000BE8F20E030E040E85FE36B8D7C8D8D8DCB
:100350009E8D0E949E1688232CF481E090E098A345
:100360008F8F3FC020E03FEF4FE757E46B8D7C8DD0
:100370008D8D9E8D0E94471718164CF520E030E0B9
:1003800040E251E469857A858B859C850E944C17F3
:10039000DC01CB01BC01CD010E94A316DC01CB0125
:1003A00098A38F8F0FC088EC90E09AA389A389A1AE
:1003B0009AA10197F1F79AA389A38F8D98A101972C
:1003C00098A38F8F8F8D98A1892B69F714C06B8D9F
:1003D0007C8D8D8D9E8D0E94A316DC01CB0198A390
:1003E0008F8F8F8D98A19CA38BA38BA19CA101972C
:1003F000F1F79CA38BA360E082E00E946B0F80E08A
:1004000090E0A0E8BFE38D879E87AF87B88B20E0A0
:1004100030E04AEF54E46D857E858F8598890E948F
:100420004C17DC01CB01898B9A8BAB8BBC8B20E00A
:1004300030E040E85FE369897A898B899C890E9472
:100440009E1688232CF481E090E09E8B8D8B3FC01C
:1004500020E03FEF4FE757E469897A898B899C89CF
:100460000E94471718164CF520E030E040E251E4B6
:100470006D857E858F8598890E944C17DC01CB01A4
:10048000BC01CD010E94A316DC01CB019E8B8D8B9C
:100490000FC088EC90E0988F8F8B8F89988D019793
:1004A000F1F7988F8F8B8D899E8901979E8B8D8B0D
:1004B0008D899E89892B69F714C069897A898B890E
:1004C0009C890E94A316DC01CB019E8B8D8B8D89AC
:1004D0009E899A8F898F898D9A8D0197F1F79A8FCE
:1004E000898F0000E9960FB6F894DEBF0FBECDBF2E
:1004F000DF91CF910895CF93DF93CDB7DEB7E99722
:100500000FB6F894DEBF0FBECDBF89AF61E081E0CA
:100510000E946B0F89AD881F8827881F682F86E08F
:100520000E946B0F89AD8295869586958370817048
:10053000682F85E00E946B0F89AD82958695877044
:100540008170682F84E00E946B0F89AD82958F7057
:100550008170682F83E00E946B0F61E082E00E944F
:100560006B0F80E090E0A0E8BFE389839A83AB83C0
:10057000BC8320E030E04AEF54E469817A818B81CA
:100580009C810E944C17DC01CB018FA798ABA9ABD3
:10059000BAAB20E030E040E85FE36FA578A989A915
:1005A0009AA90E949E1688232CF481E090E09CABCF
:1005B0008BAB3FC020E03FEF4FE757E46FA578A932
:1005C00089A99AA90E94471718164CF520E030E037
:1005D00040E251E469817A818B819C810E944C17B1
:1005E000DC01CB01BC01CD010E94A316DC01CB01D3
:1005F0009CAB8BAB0FC088EC90E09EAB8DAB8DA914
:100600009EA90197F1F79EAB8DAB8BA99CA9019791
:100610009CAB8BAB8BA99CA9892B69F714C06FA5E8
:1006200078A989A99AA90E94A316DC01CB019CABE9
:100630008BAB8BA99CA998AF8FAB8FA998AD019775
:10064000F1F798AF8FAB60E082E00E946B0F80E023
:1006500090E0A0E8BFE38D839E83AF83B88720E05E
:1006600030E04AEF54E46D817E818F8198850E944D
:100670004C17DC01CB018DA39EA3AFA3B8A720E04C
:1006800030E040E85FE36DA17EA18FA198A50E94B4
:100690009E1688232CF481E090E09AA789A73FC09A
:1006A00020E03FEF4FE757E46DA17EA18FA198A511
:1006B0000E94471718164CF520E030E040E251E464
:1006C0006D817E818F8198850E944C17DC01CB0162
:1006D000BC01CD010E94A316DC01CB019AA789A71A
:1006E0000FC088EC90E09CA78BA78BA59CA50197D9
:1006F000F1F79CA78BA789A59AA501979AA789A727
:1007000089A59AA5892B69F714C06DA17EA18FA137
:1007100098A50E94A316DC01CB019AA789A789A5F9
:100720009AA59EA78DA78DA59EA50197F1F79EA7D7
:100730008DA789AD8695869586958170682F86E010
:100740000E946B0F89AD869586958170682F85E034
:100750000E946B0F89AD86958170682F84E00E949E
:100760006B0F89AD8170682F83E00E946B0F61E091
:1007700082E00E946B0F80E090E0A0E8BFE38987F1
:100780009A87AB87BC8720E030E04AEF54E4698564
:100790007A858B859C850E944C17DC01CB018B8F61
:1007A0009C8FAD8FBE8F20E030E040E85FE36B8D23
:1007B0007C8D8D8D9E8D0E949E1688232CF481E069
:1007C00090E098A38F8F3FC020E03FEF4FE757E4C2
:1007D0006B8D7C8D8D8D9E8D0E94471718164CF564
:1007E00020E030E040E251E469857A858B859C8584
:1007F0000E944C17DC01CB01BC01CD010E94A31665
:10080000DC01CB0198A38F8F0FC088EC90E09AA3F6
:1008100089A389A19AA10197F1F79AA389A38F8D42
:1008200098A1019798A38F8F8F8D98A1892B69F735
:1008300014C06B8D7C8D8D8D9E8D0E94A316DC0166
:10084000CB0198A38F8F8F8D98A19CA38BA38BA195
:100850009CA10197F1F79CA38BA360E082E00E942A
:100860006B0F80E090E0A0E8BFE38D879E87AF87A5
:10087000B88B20E030E04AEF54E46D857E858F85AB
:1008800098890E944C17DC01CB01898B9A8BAB8B2A
:10089000BC8B20E030E040E85FE369897A898B898E
:1008A0009C890E949E1688232CF481E090E09E8B08
:1008B0008D8B3FC020E03FEF4FE757E469897A898D
:1008C0008B899C890E94471718164CF520E030E070
:1008D00040E251E46D857E858F8598890E944C1792
:1008E000DC01CB01BC01CD010E94A316DC01CB01D0
:1008F0009E8B8D8B0FC088EC90E0988F8F8B8F89AB
:10090000988D0197F1F7988F8F8B8D899E8901972C
:100910009E8B8D8B8D899E89892B69F714C069897F
:100920007A898B899C890E94A316DC01CB019E8B5E
:100930008D8B8D899E899A8F898F898D9A8D01974C
:10094000F1F79A8F898F0000E9960FB6F894DEBF11
:100950000FBECDBFDF91CF910895CF93DF93CDB779
:10096000DEB76C970FB6F894DEBF0FBECDBF80E048
:1009700090E0A8E4B2E489839A83AB83BC8320E04F
:1009800030E04AEF54E469817A818B819C810E9436
:100990004C17DC01CB018B8B9C8BAD8BBE8B20E08D
:1009A00030E040E85FE36B897C898D899E890E94F5
:1009B0009E1688232CF481E090E0988F8F8B3FC0A7
:1009C00020E03FEF4FE757E46B897C898D899E8952
:1009D0000E94471718164CF520E030E040E251E441
:1009E00069817A818B819C810E944C17DC01CB014B
:1009F000BC01CD010E94A316DC01CB01988F8F8B27
:100A00000FC088EC90E09A8F898F898D9A8D01971D
:100A1000F1F79A8F898F8F89988D0197988F8F8B97
:100A20008F89988D892B69F714C06B897C898D8992
:100A30009E890E94A316DC01CB01988F8F8B8F8932
:100A4000988D9C8F8B8F8B8D9C8D0197F1F79C8F50
:100A50008B8F82E00E94490088E20E9449008EE06C
:100A60000E94490081E00E94490080E090E0A0E8F7
:100A7000BFE38D839E83AF83B88720E030E04AEFE9
:100A800054E46D817E818F8198850E944C17DC0132
:100A9000CB0189879A87AB87BC8720E030E040E8AC
:100AA0005FE369857A858B859C850E949E168823E5
:100AB0002CF481E090E09E878D873FC020E03FEFDF
:100AC0004FE757E469857A858B859C850E94471797
:100AD00018164CF520E030E040E251E46D817E8153
:100AE0008F8198850E944C17DC01CB01BC01CD01A0
:100AF0000E94A316DC01CB019E878D870FC088EC76
:100B000090E0988B8F878F8598890197F1F7988B64
:100B10008F878D859E8501979E878D878D859E8584
:100B2000892B69F714C069857A858B859C850E941D
:100B3000A316DC01CB019E878D878D859E859A8BC0
:100B4000898B89899A890197F1F79A8B898B86E03D
:100B50000E94490000006C960FB6F894DEBF0FBEED
:100B6000CDBFDF91CF910895CF93DF931F92CDB783
:100B7000DEB7898389810E947B0200000F90DF919C
:100B8000CF910895CF93DF93CDB7DEB72E970FB6F1
:100B9000F894DEBF0FBECDBF81E00E94490080E027
:100BA00090E0A0E8BFE389839A83AB83BC8320E015
:100BB00030E04AEF54E469817A818B819C810E9404
:100BC0004C17DC01CB018D839E83AF83B88720E077
:100BD00030E040E85FE36D817E818F8198850E94DF
:100BE0009E1688232CF481E090E09A8789873FC085
:100BF00020E03FEF4FE757E46D817E818F8198853C
:100C00000E94471718164CF520E030E040E251E40E
:100C100069817A818B819C810E944C17DC01CB0118
:100C2000BC01CD010E94A316DC01CB019A87898704
:100C30000FC088EC90E09C878B878B859C85019703
:100C4000F1F79C878B8789859A8501979A87898791
:100C500089859A85892B69F714C06D817E818F8182
:100C600098850E94A316DC01CB019A878987898524
:100C70009A859E878D878D859E850197F1F79E8742
:100C80008D8700002E960FB6F894DEBF0FBECDBF45
:100C9000DF91CF910895CF93DF9300D01F92CDB70E
:100CA000DEB79B838A8319820EC08981882F90E0EA
:100CB0002A813B81820F931FFC0180810E94B40531
:100CC00089818F5F89838981882F90E02A813B8188
:100CD000820F931FFC018081882339F700000F9059
:100CE0000F900F90DF91CF910895CF93DF9300D0B5
:100CF000CDB7DEB789836A838981813031F48A81F7
:100D0000815080680E94490008C08981823029F49E
:100D10008A818150806C0E94490000000F900F90E2
:100D2000DF91CF9108950F931F93CF93DF93CDB7AA
:100D3000DEB76B970FB6F894DEBF0FBECDBF688FDE
:100D4000798F8A8F9B8F1982888D998DAA8DBB8D03
:100D5000892B8A2B8B2B19F480E30E94B405888D94
:100D6000998DAA8DBB8DBB230CF040C08DE20E94F3
:100D7000B405888D998DAA8DBB8DB095A095909561
:100D800081959F4FAF4FBF4F888F998FAA8FBB8F91
:100D90002DC08981082F10E0888D998DAA8DBB8D7B
:100DA0002AE030E040E050E0BC01CD010E94DB17BA
:100DB000DC01CB01282FCE010496800F911FFC018E
:100DC0002083888D998DAA8DBB8D2AE030E040E08C
:100DD00050E0BC01CD010E94DB17DA01C901888F08
:100DE000998FAA8FBB8F89818F5F8983888D998D19
:100DF000AA8DBB8D892B8A2B8B2B59F6898181502B
:100E00008A8313C08A81082E000C990B9E012C5FE7
:100E10003F4F820F931FFC018081805D8B838B810C
:100E20000E94B4058A8181508A838A81882354F77D
:100E300000006B960FB6F894DEBF0FBECDBFDF91FA
:100E4000CF911F910F9108950F931F93CF93DF932D
:100E50001F92CDB7DEB7898308E410E08981282F7F
:100E600030E040E050E088EE93E0DC010E94091899
:100E7000DC01CB0124EB30E040E050E0BC01CD01CF
:100E80000E94B917DA01C90189519C4FF801918379
:100E9000808300000F90DF91CF911F910F910895F3
:100EA000CF93DF93CDB7DEB72E970FB6F894DEBFA2
:100EB0000FBECDBF8091600090916100892B09F435
:100EC00093C08091600090916100099708F08CC0F8
:100ED0008091E400882309F087C081E08093E200DC
:100EE00084EB0E94240780E090E0AAEFB4E48983B9
:100EF0009A83AB83BC8320E030E04AEF54E46981FD
:100F00007A818B819C810E944C17DC01CB018D83FF
:100F10009E83AF83B88720E030E040E85FE36D81D7
:100F20007E818F8198850E949E1688232CF481E013
:100F300090E09A8789873FC020E03FEF4FE757E472
:100F40006D817E818F8198850E94471718164CF518
:100F500020E030E040E251E469817A818B819C811C
:100F60000E944C17DC01CB01BC01CD010E94A316ED
:100F7000DC01CB019A8789870FC088EC90E09C87C1
:100F80008B878B859C850197F1F79C878B8789855B
:100F90009A8501979A87898789859A85892B69F728
:100FA00014C06D817E818F8198850E94A316DC011B
:100FB000CB019A87898789859A859E878D878D85BC
:100FC0009E850197F1F79E878D8780E00E94240718
:100FD00080916000909161000197909361008093EF
:100FE000600081E08093E3001092E40000002E9600
:100FF0000FB6F894DEBF0FBECDBFDF91CF9108953D
:10100000CF93DF93CDB7DEB72E970FB6F894DEBF40
:101010000FBECDBF8091600090916100089708F0ED
:101020008DC080916000909161008091E3008823E1
:1010300009F084C08AE50E94240780E090E0AAEFCE
:10104000B4E489839A83AB83BC8320E030E04AEF29
:1010500054E469817A818B819C810E944C17DC0168
:10106000CB018D839E83AF83B88720E030E040E8DA
:101070005FE36D817E818F8198850E949E16882313
:101080002CF481E090E09A8789873FC020E03FEF11
:101090004FE757E46D817E818F8198850E944717C5
:1010A00018164CF520E030E040E251E469817A8185
:1010B0008B819C810E944C17DC01CB01BC01CD01CE
:1010C0000E94A316DC01CB019A8789870FC088ECA8
:1010D00090E09C878B878B859C850197F1F79C8797
:1010E0008B8789859A8501979A87898789859A85CB
:1010F000892B69F714C06D817E818F8198850E944C
:10110000A316DC01CB019A87898789859A859E87FA
:101110008D878D859E850197F1F79E878D8780E06D
:101120000E94240780916000909161000196909345
:1011300061008093600081E08093E4001092E300FE
:1011400000002E960FB6F894DEBF0FBECDBFDF9124
:10115000CF910895CF93DF93CDB7DEB72E970FB61B
:10116000F894DEBF0FBECDBF809162009091630006
:101170008091E200813009F084C0809160009091FC
:1011800061000196909361008093600080916200FD
:10119000909163000197909363008093620080E0D8
:1011A00090E0AAEFB4E489839A83AB83BC8320E008
:1011B00030E04AEF54E469817A818B819C810E94FE
:1011C0004C17DC01CB018D839E83AF83B88720E071
:1011D00030E040E85FE36D817E818F8198850E94D9
:1011E0009E1688232CF481E090E09A8789873FC07F
:1011F00020E03FEF4FE757E46D817E818F81988536
:101200000E94471718164CF520E030E040E251E408
:1012100069817A818B819C810E944C17DC01CB0112
:10122000BC01CD010E94A316DC01CB019A878987FE
:101230000FC088EC90E09C878B878B859C850197FD
:10124000F1F79C878B8789859A8501979A8789878B
:1012500089859A85892B69F714C06D817E818F817C
:1012600098850E94A316DC01CB019A87898789851E
:101270009A859E878D878D859E850197F1F79E873C
:101280008D8700002E960FB6F894DEBF0FBECDBF3F
:10129000DF91CF910895CF93DF93CDB7DEB72E972F
:1012A0000FB6F894DEBF0FBECDBF80916200909163
:1012B0006300059708F084C08091620090916300FC
:1012C00001969093630080936200809160009091FA
:1012D00061000197909361008093600080E090E04E
:1012E000AAEFB4E489839A83AB83BC8320E030E027
:1012F0004AEF54E469817A818B819C810E944C176A
:10130000DC01CB018D839E83AF83B88720E030E082
:1013100040E85FE36D817E818F8198850E949E16F3
:1013200088232CF481E090E09A8789873FC020E0F1
:101330003FEF4FE757E46D817E818F8198850E9452
:10134000471718164CF520E030E040E251E469817F
:101350007A818B819C810E944C17DC01CB01BC01FE
:10136000CD010E94A316DC01CB019A8789870FC0AB
:1013700088EC90E09C878B878B859C850197F1F7A3
:101380009C878B8789859A8501979A878987898524
:101390009A85892B69F714C06D817E818F8198852C
:1013A0000E94A316DC01CB019A87898789859A85DB
:1013B0009E878D878D859E850197F1F79E878D8706
:1013C00000002E960FB6F894DEBF0FBECDBFDF91A2
:1013D000CF9108950F931F93CF93DF93CDB7DEB7CF
:1013E000C654D1090FB6F894DEBF0FBECDBF0E9420
:1013F000ED0C0E94AD040E94C81062E084E00E94DF
:10140000921382E00E94821482E00E94EB148AE42C
:1014100090E02FE13EE4FC013183208360E078E03E
:1014200080E00E94121260E577E081E00E941212D3
:101430006AEA78E082E00E94121280E00E94DC10EA
:1014400081E00E94DC1082E00E94DC1084E690E0E3
:101450000E944B0680E090E0A8E4B3E489839A837D
:10146000AB83BC8320E030E04AEF54E469817A81A9
:101470008B819C810E944C17DC01CB019E01235C77
:101480003F4FF90180839183A283B38320E030E052
:1014900040E85FE3CE01CD96FC01608171818281DD
:1014A00093810E949E1688234CF4CE018F5B9F4F40
:1014B00021E030E0FC013183208367C020E03FEF72
:1014C0004FE757E4CE01CD96FC01608171818281A6
:1014D00093810E94471718160CF046C020E030E0B8
:1014E00040E251E469817A818B819C810E944C1792
:1014F000DC01CB018E010F5B1F4FBC01CD010E94AF
:10150000A316DC01CB01F8019183808324C0CE01B6
:101510008D5B9F4F28EC30E0FC0131832083CE01AE
:101520008D5B9F4FFC01808191810197F1F79E01B6
:101530002D5B3F4FF90191838083CE018F5B9F4FDD
:101540009E012F5B3F4FF9012081318121503109EC
:10155000FC0131832083CE018F5B9F4FFC01808192
:101560009181892BA1F62BC08E010F5B1F4FCE01FD
:10157000CD96FC0160817181828193810E94A316C6
:10158000DC01CB01F80191838083CE018B5B9F4FFF
:101590009E012F5B3F4FF90120813181FC01318396
:1015A0002083CE018B5B9F4FFC018081918101974D
:1015B000F1F79E012B5B3F4FF901918380830E94DD
:1015C000C20587E790E00E944B0680E090E0A8E427
:1015D000B3E48D839E83AF83B88720E030E04AEF89
:1015E00054E46D817E818F8198850E944C17DC01C7
:1015F000CB018BAB9CABADABBEAB20E030E040E8A9
:101600005FE36BA97CA98DA99EA90E949E168823E1
:101610002CF481E090E098AF8FAB3FC020E03FEF2B
:101620004FE757E46BA97CA98DA99EA90E94471793
:1016300018164CF520E030E040E251E46D817E81E7
:101640008F8198850E944C17DC01CB01BC01CD0134
:101650000E94A316DC01CB0198AF8FAB0FC088ECC2
:1016600090E09AAF89AF89AD9AAD0197F1F79AAF43
:1016700089AF8FA998AD019798AF8FAB8FA998AD1F
:10168000892B69F714C06BA97CA98DA99EA90E941A
:10169000A316DC01CB0198AF8FAB8FA998AD9CAF9F
:1016A0008BAF8BAD9CAD0197F1F79CAF8BAF0E94D8
:1016B000C20589E890E00E944B0680E090E0A8E433
:1016C000B3E489879A87AB87BC8720E030E04AEF94
:1016D00054E469857A858B859C850E944C17DC01D2
:1016E000CB0189A79AA7ABA7BCA720E030E040E8D0
:1016F0005FE369A57AA58BA59CA50E949E16882309
:101700002CF481E090E09EA78DA73FC020E03FEF42
:101710004FE757E469A57AA58BA59CA50E944717BA
:1017200018164CF520E030E040E251E469857A85F6
:101730008B859C850E944C17DC01CB01BC01CD013F
:101740000E94A316DC01CB019EA78DA70FC088ECD9
:1017500090E098AB8FA78FA598A90197F1F798AB68
:101760008FA78DA59EA501979EA78DA78DA59EA548
:10177000892B69F714C069A57AA58BA59CA50E9441
:10178000A316DC01CB019EA78DA78DA59EA59AABC4
:1017900089AB89A99AA90197F1F79AAB89AB0E9405
:1017A000C20588E990E00E944B0680E090E0A8E442
:1017B000B3E48D879E87AF87B88B20E030E04AEF97
:1017C00054E46D857E858F8598890E944C17DC01D5
:1017D000CB018F8F98A3A9A3BAA320E030E040E803
:1017E0005FE36F8D78A189A19AA10E949E1688233C
:1017F0002CF481E090E09CA38BA33FC020E03FEF5E
:101800004FE757E46F8D78A189A19AA10E944717ED
:1018100018164CF520E030E040E251E46D857E85FD
:101820008F8598890E944C17DC01CB01BC01CD014A
:101830000E94A316DC01CB019CA38BA30FC088ECF4
:1018400090E09EA38DA38DA19EA10197F1F79EA389
:101850008DA38BA19CA101979CA38BA38BA19CA181
:10186000892B69F714C06F8D78A189A19AA10E9474
:10187000A316DC01CB019CA38BA38BA19CA198A7F1
:101880008FA38FA198A50197F1F798A78FA30E9426
:10189000C20580E00E94240780E090E0AAE7B4E45B
:1018A000898B9A8BAB8BBC8B20E030E04AEF54E401
:1018B00069897A898B899C890E944C17DC01CB014C
:1018C0008D8B9E8BAF8BB88F20E030E040E85FE3DC
:1018D0006D897E898F89988D0E949E1688232CF4AD
:1018E00081E090E09A8F898F3FC020E03FEF4FE783
:1018F00057E46D897E898F89988D0E944717181645
:101900004CF520E030E040E251E469897A898B8926
:101910009C890E944C17DC01CB01BC01CD010E94C7
:10192000A316DC01CB019A8F898F0FC088EC90E061
:101930009C8F8B8F8B8D9C8D0197F1F79C8F8B8F5C
:10194000898D9A8D01979A8F898F898D9A8D892B90
:1019500069F714C06D897E898F89988D0E94A316BE
:10196000DC01CB019A8F898F898D9A8D9E8F8D8F07
:101970008D8D9E8D0197F1F79E8F8D8F789461E00C
:1019800081E00E94750689EA90E00E944B068091F2
:10199000600090916100CC01A0E0B0E0BC01CD01FD
:1019A0000E94930661E082E00E94750685EB90E05C
:1019B0000E944B068091620090916300CC01A0E0F0
:1019C000B0E0BC01CD010E9493068BE00E945A104A
:1019D0008823A9F60E944B09D2CFCF93DF931F92A1
:1019E000CDB7DEB719820EC08981882F90E08F5362
:1019F0009F4FFC018081682F89810E940A0D898197
:101A00008F5F89838981803278F300000F90DF91A6
:101A1000CF910895CF93DF9300D000D0CDB7DEB73C
:101A20008B836C838B8186958695869589838B8144
:101A300087708A838C81882F90E08130910509F42A
:101A4000C4C08230910509F481C1892B09F03BC2E1
:101A50008981882F90E081309105C1F18230910514
:101A60001CF4892B49F02FC28230910509F458C02B
:101A7000039709F47FC027C28AE390E02AE330E0AD
:101A8000F9012081622F2A81422F50E021E030E0CD
:101A900002C0220F331F4A95E2F7262BFC01208358
:101AA0008BE390E02BE330E0F9012081622F2A8163
:101AB000422F50E021E030E002C0220F331F4A9550
:101AC000E2F720952623FC0120837EC087E390E087
:101AD00027E330E0F9012081622F2A81422F50E074
:101AE00021E030E002C0220F331F4A95E2F7262B97
:101AF000FC01208388E390E028E330E0F9012081B5
:101B0000622F2A81422F50E021E030E002C0220FF4
:101B1000331F4A95E2F720952623FC01208354C009
:101B200084E390E024E330E0F9012081622F2A81F0
:101B3000422F50E021E030E002C0220F331F4A95CF
:101B4000E2F7262BFC01208385E390E025E330E0DB
:101B5000F9012081622F2A81422F50E021E030E0FC
:101B600002C0220F331F4A95E2F720952623FC017D
:101B700020832AC081E390E021E330E0F901208155
:101B8000622F2A81422F50E021E030E002C0220F74
:101B9000331F4A95E2F7262BFC01208382E390E075
:101BA00022E330E0F9012081622F2A81422F50E0A8
:101BB00021E030E002C0220F331F4A95E2F7209562
:101BC0002623FC01208300007EC18981882F90E0BC
:101BD00081309105C9F1823091051CF4892B49F0BF
:101BE00072C18230910509F45AC0039709F482C08A
:101BF0006AC18AE390E02AE330E0F9012081622F94
:101C00002A81422F50E021E030E002C0220F331F32
:101C10004A95E2F720952623FC0120838BE390E090
:101C20002BE330E0F9012081622F2A81422F50E01E
:101C300021E030E002C0220F331F4A95E2F72095E1
:101C40002623FC01208381C087E390E027E330E076
:101C5000F9012081622F2A81422F50E021E030E0FB
:101C600002C0220F331F4A95E2F720952623FC017C
:101C7000208388E390E028E330E0F9012081622F9F
:101C80002A81422F50E021E030E002C0220F331FB2
:101C90004A95E2F720952623FC01208356C084E371
:101CA00090E024E330E0F9012081622F2A81422F65
:101CB00050E021E030E002C0220F331F4A95E2F7E6
:101CC00020952623FC01208385E390E025E330E086
:101CD000F9012081622F2A81422F50E021E030E07B
:101CE00002C0220F331F4A95E2F720952623FC01FC
:101CF00020832BC081E390E021E330E0F9012081D3
:101D0000622F2A81422F50E021E030E002C0220FF2
:101D1000331F4A95E2F720952623FC01208382E3B6
:101D200090E022E330E0F9012081622F2A81422FE6
:101D300050E021E030E002C0220F331F4A95E2F765
:101D400020952623FC0120830000BDC08981882FB7
:101D500090E081309105C1F1823091051CF4892B0E
:101D600049F0B0C08230910509F458C0039709F4D6
:101D70007FC0A8C08AE390E02AE330E0F901208127
:101D8000622F2A81422F50E021E030E002C0220F72
:101D9000331F4A95E2F720952623FC0120838BE32D
:101DA00090E02BE330E0F9012081622F2A81422F5D
:101DB00050E021E030E002C0220F331F4A95E2F7E5
:101DC000262BFC0120837EC087E390E027E330E0F0
:101DD000F9012081622F2A81422F50E021E030E07A
:101DE00002C0220F331F4A95E2F720952623FC01FB
:101DF000208388E390E028E330E0F9012081622F1E
:101E00002A81422F50E021E030E002C0220F331F30
:101E10004A95E2F7262BFC01208354C084E390E02E
:101E200024E330E0F9012081622F2A81422F50E023
:101E300021E030E002C0220F331F4A95E2F72095DF
:101E40002623FC01208385E390E025E330E0F901BF
:101E50002081622F2A81422F50E021E030E002C031
:101E6000220F331F4A95E2F7262BFC0120832AC05C
:101E700081E390E021E330E0F9012081622F2A81A3
:101E8000422F50E021E030E002C0220F331F4A957C
:101E9000E2F720952623FC01208382E390E022E3F1
:101EA00030E0F9012081622F2A81422F50E021E0A9
:101EB00030E002C0220F331F4A95E2F7262BFC01C7
:101EC00020830000000000000F900F900F900F90F3
:101ED000DF91CF910895CF93DF9300D000D0CDB79D
:101EE000DEB78B836C838B818695869586958983F7
:101EF0008B8187708A838C81813009F068C08981E9
:101F0000882F90E08130910511F1823091051CF409
:101F1000892B41F0C7C08230910571F1039709F414
:101F200040C0C0C08BE390E02BE330E0F90120819A
:101F3000622F2A81422F50E021E030E002C0220FC0
:101F4000331F4A95E2F7262BFC012083ABC088E3C0
:101F500090E028E330E0F9012081622F2A81422FAE
:101F600050E021E030E002C0220F331F4A95E2F733
:101F7000262BFC01208396C085E390E025E330E02A
:101F8000F9012081622F2A81422F50E021E030E0C8
:101F900002C0220F331F4A95E2F7262BFC01208353
:101FA00081C082E390E022E330E0F9012081622FDA
:101FB0002A81422F50E021E030E002C0220F331F7F
:101FC0004A95E2F7262BFC01208300006BC0898133
:101FD000882F90E08130910519F1823091051CF431
:101FE000892B41F05FC08230910581F1039709F49C
:101FF00043C058C08BE390E02BE330E0F90120812F
:10200000622F2A81422F50E021E030E002C0220FEF
:10201000331F4A95E2F720952623FC01208342C016
:1020200088E390E028E330E0F9012081622F2A81E3
:10203000422F50E021E030E002C0220F331F4A95CA
:10204000E2F720952623FC0120832CC085E390E055
:1020500025E330E0F9012081622F2A81422F50E0F0
:1020600021E030E002C0220F331F4A95E2F72095AD
:102070002623FC01208316C082E390E022E330E0B7
:10208000F9012081622F2A81422F50E021E030E0C7
:1020900002C0220F331F4A95E2F720952623FC0148
:1020A0002083000000000F900F900F900F90DF91A1
:1020B000CF910895CF93DF9300D000D0CDB7DEB796
:1020C0008C838C818695869586958A838C81877092
:1020D0008B8319828A81882F90E081309105E9F005
:1020E000823091051CF4892B39F04AC08230910569
:1020F00029F10397A1F144C089E390E0FC018081BC
:10210000882F90E02B81222F30E002C09595879593
:102110002A95E2F78170898333C086E390E0FC0161
:102120008081882F90E02B81222F30E002C095958E
:1021300087952A95E2F78170898322C083E390E036
:10214000FC018081882F90E02B81222F30E002C09B
:10215000959587952A95E2F78170898311C080E370
:1021600090E0FC018081882F90E02B81222F30E0CD
:1021700002C0959587952A95E2F7817089830000C2
:1021800089810F900F900F900F90DF91CF9108955C
:10219000CF93DF93CDB7DEB762E080E00E941111EC
:1021A00062E081E00E94111162E082E00E94111160
:1021B0000000DF91CF910895CF93DF931F92CDB7A9
:1021C000DEB789838981882F90E08130910581F085
:1021D00082309105B9F0892B09F01EC08BE590E0A3
:1021E0002BE530E0F90120812064FC01208314C03C
:1021F0008BE590E02BE530E0F90120812068FC01BF
:1022000020830AC08BE590E02BE530E0F9012081C6
:102210002062FC012083000000000F90DF91CF912D
:102220000895CF93DF9300D0CDB7DEB789836A835B
:102230008981882F90E08130910509F466C0823051
:10224000910509F4C1C0892B09F0E6C08A81882F65
:1022500090E081309105F9F0823091051CF4892BD2
:1022600039F0DAC08230910549F10397D1F1D4C039
:1022700085E590E025E530E0F90120812E7FFC0125
:10228000208385E590E025E530E0F90120812D7F70
:10229000FC01208339C085E590E025E530E0F901B7
:1022A00020812160FC01208385E590E025E530E078
:1022B000F90120812D7FFC01208326C085E590E077
:1022C00025E530E0F90120812E7FFC01208385E5A2
:1022D00090E025E530E0F90120812260FC012083B7
:1022E00013C085E590E025E530E0F901208121600B
:1022F000FC01208385E590E025E530E0F9012081AF
:102300002260FC012083000087C08A81882F90E032
:1023100081309105F9F0823091051CF4892B39F058
:102320007BC08230910549F10397D1F175C085E5F5
:1023300090E025E530E0F90120812B7FFC0120832E
:1023400085E590E025E530E0F9012081277FFC015B
:10235000208339C085E590E025E530E0F901208152
:102360002460FC01208385E590E025E530E0F9015B
:102370002081277FFC01208326C085E590E025E5AC
:1023800030E0F90120812B7FFC01208385E590E07E
:1023900025E530E0F90120812860FC01208313C08D
:1023A00085E590E025E530E0F90120812460FC011D
:1023B000208385E590E025E530E0F9012081286063
:1023C000FC012083000028C08A81882F90E08230A1
:1023D000910519F0039759F014C084E590E024E5C5
:1023E00030E0F90120812F7BFC01208314C084E5BB
:1023F00090E024E530E0F90120812064FC01208395
:102400000AC084E590E024E530E0F90120812F7BCB
:10241000FC01208300C0000000000F900F90DF91AE
:10242000CF910895CF93DF9300D01F92CDB7DEB741
:1024300089837B836A838981882F90E0813091052D
:1024400069F08230910589F0892B09F015C08A81E5
:102450009B819093E6008093E5000EC08A819B816A
:102460009093E8008093E70007C08A819B81909356
:10247000EA008093E900000000000F900F900F9099
:10248000DF91CF9108951F920F9200905F000F92FD
:1024900011242F933F934F935F936F937F938F9369
:1024A0009F93AF93BF93EF93FF93CF93DF93CDB7FA
:1024B000DEB78091E5009091E600892B31F08091A4
:1024C000E5009091E600FC0109950000DF91CF91B5
:1024D000FF91EF91BF91AF919F918F917F916F91FC
:1024E0005F914F913F912F910F9000925F000F905D
:1024F0001F9018951F920F9200905F000F92112469
:102500002F933F934F935F936F937F938F939F93FB
:10251000AF93BF93EF93FF93CF93DF93CDB7DEB726
:102520008091E7009091E800892B31F08091E700DD
:102530009091E800FC0109950000DF91CF91FF9197
:10254000EF91BF91AF919F918F917F916F915F912B
:102550004F913F912F910F9000925F000F901F902D
:1025600018951F920F9200905F000F9211242F93E5
:102570003F934F935F936F937F938F939F93AF930B
:10258000BF93EF93FF93CF93DF93CDB7DEB78091E7
:10259000E9009091EA00892B31F08091E900909157
:1025A000EA00FC0109950000DF91CF91FF91EF91C6
:1025B000BF91AF919F918F917F916F915F914F915B
:1025C0003F912F910F9000925F000F901F901895F0
:1025D0001F920F9200905F000F9211242F933F9350
:1025E0004F935F936F937F938F939F93AF93BF931B
:1025F000EF93FF93CF93DF93CDB7DEB78091EB00DE
:102600009091EC00892B31F08091EB009091EC00DF
:10261000FC0109950000DF91CF91FF91EF91BF91EF
:10262000AF919F918F917F916F915F914F913F916A
:102630002F910F9000925F000F901F9018951F929E
:102640000F9200905F000F9211242F933F934F93AE
:102650005F936F937F938F939F93AF93BF93EF930A
:10266000FF93CF93DF93CDB7DEB78091ED009091CC
:10267000EE00892B31F08091ED009091EE00FC018D
:1026800009950000DF91CF91FF91EF91BF91AF913C
:102690009F918F917F916F915F914F913F912F917A
:1026A0000F9000925F000F901F9018951F920F924D
:1026B00000905F000F9211242F933F934F935F93ED
:1026C0006F937F938F939F93AF93BF93EF93FF93FA
:1026D000CF93DF93CDB7DEB782E590E02CE9FC0124
:1026E00020838091EF009091F000892B31F0809150
:1026F000EF009091F000FC0109950000DF91CF916F
:10270000FF91EF91BF91AF919F918F917F916F91C9
:102710005F914F913F912F910F9000925F000F902A
:102720001F901895CF93DF9300D0CDB7DEB7898384
:102730006A838981882F90E08230910509F45AC01C
:10274000833091052CF4009759F0019771F1C1C0C5
:102750008330910509F473C0049709F495C0B9C09A
:102760008FE490E02FE430E0F90120812E7FFC011E
:1027700020838FE490E02FE430E0F90120812D7F69
:10278000FC0120838EE490E02EE430E0F90120810A
:10279000277FFC0120838EE490E02EE430E0F901F5
:1027A00020812F7EFC01208394C08FE490E02FE4F1
:1027B00030E0F90120812E7FFC0120838FE490E03E
:1027C0002FE430E0F90120812D7FFC0120838EE48D
:1027D00090E02EE430E0F90120812860FC012083A4
:1027E0008EE490E02EE430E0F90120812061FC01CC
:1027F00020836FC08FE490E02FE430E0F901208166
:102800002E7FFC0120838FE490E02FE430E0F9017B
:1028100020812D7FFC0120838EE490E02EE430E0C7
:10282000F90120812860FC0120838EE490E02EE4F1
:1028300030E0F90120812F7EFC0120834AC08FE423
:1028400090E02FE430E0F90120812E7FFC0120830D
:102850008FE490E02FE430E0F90120812260FC0158
:1028600020838EE490E02EE430E0F901208128609E
:10287000FC0120838EE490E02EE430E0F901208119
:102880002061FC01208325C08FE490E02FE430E03C
:10289000F90120812160FC0120838FE490E02FE486
:1028A00030E0F90120812260FC0120838EE490E079
:1028B0002EE430E0F90120812860FC0120838EE4C1
:1028C00090E02EE430E0F90120812061FC012083BA
:1028D00000008EE490E02EE430E0F9012081287FB2
:1028E000FC0120838EE490E02EE430E0F901308199
:1028F0002A81232BFC01208300000F900F90DF9191
:10290000CF910895CF93DF931F92CDB7DEB7898320
:102910008981882F90E081309105F9F0823091050E
:102920001CF4892B39F052C08230910549F103978C
:10293000D1F14CC08FE490E02FE430E0F901208128
:102940002F7BFC0120838FE490E02FE430E0F9013D
:1029500020812F77FC01208339C08FE490E02FE4A1
:1029600030E0F90120812064FC0120838FE490E0B5
:102970002FE430E0F90120812F77FC01208326C06D
:102980008FE490E02FE430E0F90120812F7BFC01FF
:1029900020838FE490E02FE430E0F901208120686B
:1029A000FC01208313C08FE490E02FE430E0F901B4
:1029B00020812064FC0120838FE490E02FE430E04C
:1029C000F90120812068FC012083000000000F90A5
:1029D000DF91CF910895CF93DF931F92CDB7DEB7EC
:1029E00089838981882F90E081309105F9F08230C8
:1029F00091051CF4892B39F052C08230910549F1C0
:102A00000397D1F14CC08FE490E02FE430E0F9015E
:102A100020812F7EFC0120838FE490E02FE430E0C2
:102A2000F90120812F7DFC01208339C08FE490E0E3
:102A30002FE430E0F90120812061FC0120838FE444
:102A400090E02FE430E0F90120812F7DFC0120830C
:102A500026C08FE490E02FE430E0F90120812F7E42
:102A6000FC0120838FE490E02FE430E0F901208125
:102A70002062FC01208313C08FE490E02FE430E05B
:102A8000F90120812061FC0120838FE490E02FE494
:102A900030E0F90120812062FC0120830000000069
:102AA0000F90DF91CF9108951F920F9200905F00D9
:102AB0000F9211242F933F934F935F936F937F93C4
:102AC0008F939F93AF93BF93EF93FF93CF93DF9336
:102AD000CDB7DEB78091F1009091F200892B31F0F3
:102AE0008091F1009091F200FC0109950000DF91C6
:102AF000CF91FF91EF91BF91AF919F918F917F9176
:102B00006F915F914F913F912F910F9000925F00D5
:102B10000F901F9018951F920F9200905F000F92D8
:102B200011242F933F934F935F936F937F938F93D2
:102B30009F93AF93BF93EF93FF93CF93DF93CDB763
:102B4000DEB78091F3009091F400892B31F08091F1
:102B5000F3009091F400FC0109950000DF91CF9102
:102B6000FF91EF91BF91AF919F918F917F916F9165
:102B70005F914F913F912F910F9000925F000F90C6
:102B80001F9018951F920F9200905F000F921124D2
:102B90002F933F934F935F936F937F938F939F9365
:102BA000AF93BF93EF93FF93CF93DF93CDB7DEB790
:102BB0008091F5009091F600892B31F08091F5001D
:102BC0009091F600FC0109950000DF91CF91FF91F3
:102BD000EF91BF91AF919F918F917F916F915F9195
:102BE0004F913F912F910F9000925F000F901F9097
:102BF00018951F920F9200905F000F9211242F934F
:102C00003F934F935F936F937F938F939F93AF9374
:102C1000BF93EF93FF93CF93DF93CDB7DEB7809150
:102C2000F7009091F800892B31F08091F700909196
:102C3000F800FC0109950000DF91CF91FF91EF9121
:102C4000BF91AF919F918F917F916F915F914F91C4
:102C50003F912F910F9000925F000F901F90189559
:102C60001F920F9200905F000F9211242F933F93B9
:102C70004F935F936F937F938F939F93AF93BF9384
:102C8000EF93FF93CF93DF93CDB7DEB78091F90039
:102C90009091FA00892B31F08091F9009091FA001F
:102CA000FC0109950000DF91CF91FF91EF91BF9159
:102CB000AF919F918F917F916F915F914F913F91D4
:102CC0002F910F9000925F000F901F9018951F9208
:102CD0000F9200905F000F9211242F933F934F9318
:102CE0005F936F937F938F939F93AF93BF93EF9374
:102CF000FF93CF93DF93CDB7DEB78091FB00909128
:102D0000FC00892B31F08091FB009091FC00FC01CC
:102D100009950000DF91CF91FF91EF91BF91AF91A5
:102D20009F918F917F916F915F914F913F912F91E3
:102D30000F9000925F000F901F9018950E94D2167E
:102D400008F481E008950E94261788F09F5798F0B4
:102D5000B92F9927B751B0F0E1F0660F771F881FA0
:102D6000991F1AF0BA95C9F714C0B13091F00E94BA
:102D70004017B1E008950C944017672F782F8827EB
:102D8000B85F39F0B93FCCF3869577956795B395E1
:102D9000D9F73EF490958095709561957F4F8F4F50
:102DA0009F4F0895990F0008550FAA0BE0E8FEEF1A
:102DB00016161706E807F907C0F012161306E407FF
:102DC000F50798F0621B730B840B950B39F40A26F8
:102DD00061F0232B242B252B21F408950A2609F4D6
:102DE000A140A6958FEF811D811D089597F99F67DA
:102DF00080E870E060E008959FEF80EC0895002483
:102E00000A941616170618060906089500240A944F
:102E100012161306140605060895092E0394000CD5
:102E200011F4882352F0BB0F40F4BF2B11F460FF64
:102E300004C06F5F7F4F8F4F9F4F089557FD90588D
:102E4000440F551F59F05F3F71F04795880F97FB6E
:102E5000991F61F09F3F79F0879508951216130628
:102E60001406551FF2CF4695F1DF08C01616170657
:102E70001806991FF1CF869571056105089408958C
:102E8000E894BB2766277727CB0197F908950E941E
:102E9000D21608F48FEF08950E945F170C940D1757
:102EA0000E94FF1638F00E94061720F0952311F0BB
:102EB0000C94F6160C94FC1611240C9441170E94E5
:102EC0001E1770F3959FC1F3950F50E0551F629F39
:102ED000F001729FBB27F00DB11D639FAA27F00D73
:102EE000B11DAA1F649F6627B00DA11D661F829F9A
:102EF0002227B00DA11D621F739FB00DA11D621F7F
:102F0000839FA00D611D221F749F3327A00D611D9B
:102F1000231F849F600D211D822F762F6A2F11247D
:102F20009F5750409AF0F1F088234AF0EE0FFF1FB0
:102F3000BB1F661F771F881F91505040A9F79E3F07
:102F4000510580F00C94F6160C9441175F3FE4F3A2
:102F5000983ED4F3869577956795B795F795E7955D
:102F60009F5FC1F7FE2B880F911D9695879597F966
:102F70000895A1E21A2EAA1BBB1BFD010DC0AA1FBA
:102F8000BB1FEE1FFF1FA217B307E407F50720F0D2
:102F9000A21BB30BE40BF50B661F771F881F991F4D
:102FA0001A9469F760957095809590959B01AC0196
:102FB000BD01CF010895052E97FB1EF400940E94D9
:102FC000F21757FD07D00E94B91707FC03D04EF443
:102FD0000C94F21750954095309521953F4F4F4FE7
:102FE0005F4F089590958095709561957F4F8F4FB5
:102FF0009F4F0895A29FB001B39FC001A39F700D82
:10300000811D1124911DB29F700D811D1124911DF0
:1030100008950E94FA17A59F900DB49F900DA49F4C
:0C302000800D911D11240895F894FFCF3D
:10302C00080005004361722047617261676520509A
:10303C00726F6A656374004D6F73746166612041D1
:10304C006264656C4E616279004D6F68616D656498
:10305C0020456C526F6B68004D6F68616D65642024
:10306C00416264656C68617100696E20466C6F6FBB
:10307C007220313A00696E20466C6F6F7220323AC2
:10308C000001000000000000010202020200000129
:10309C00000000000000000000010002020000001F
:0230AC00000022
:00000001FF
